S02B000052413654335F4D43494C56315F53504D5F454E43445F464F435F54554E45525F4532535F563130311D
S31500000000B042002071780000D97600006D780000BB
S315000000106D7800006D7800006D7800006D78000046
S315000000200000000000000000000000006D780000E5
S315000000306D780000000000006D7800006D7800000B
S31500000040615C0000896E00002D750000E968000003
S31500000050000000000000000000000000000000009A
S31500000060000000000000000000000000000000008A
S31500000070000000000000000000000000000000007A
S31500000080000000000000000000000000000000006A
S31500000090000000000000000000000000000000005A
S315000000A0000000000000000000000000000000004A
S315000000B0000000000000000000000000000000003A
S315000000C0000000000000000000000000000000002A
S315000000D0000000000000000000000000000000001A
S315000000E0000000000000000000000000000000000A
S315000000F000000000000000000000000000000000FA
S3150000010000000000000000000000000000000000E9
S3150000011000000000000000000000000000000000D9
S3150000012000000000000000000000000000000000C9
S3150000013000000000000000000000000000000000B9
S3150000014000000000000000000000000000000000A9
S315000001500000000000000000000000000000000099
S315000001600000000000000000000000000000000089
S315000001700000000000000000000000000000000079
S315000001800000000000000000000000000000000069
S315000001900000000000000000000000000000000059
S315000001A00000000000000000000000000000000049
S315000001B00000000000000000000000000000000039
S315000001C010B5054C237833B9044B13B1044800E04D
S315000001D000BF0123237010BDF000002000000000C6
S315000001E0C823010008B5034B1BB10349034800E0CF
S315000001F000BF08BD00000000F4000020C823010075
S31500000200F0B5824B83B0197821B9814B9A6818688A
S31500000210936998477F4B804C1A7823789A4201D08D
S3150000022003B0F0BD01F0D2F97C4B7D4A1B787D4DC1
S315000002301370E3B92A7C012A06D17B4A2B74936892
S315000002407A499B6B10689847794B9E681F68794B73
S31500000250384693ED000AB369984700233846F26999
S3150000026001A9ADF80430ADF80630904702E0012B45
S3150000027000F0AE80704BDFED716AD3ED007AB7EE19
S31500000280087A67EEA67A67EE877A6D4B6D486E4AF6
S31500000290196800886D4B908618886D4BD0869960DA
S315000002A06C49C3ED007A09886B4B69836B4993ED02
S315000002B0007A08886A4B06EE900A6A49D3ED007AFE
S315000002C0B8EEE66AD1ED006A674B684ED3F800E0F7
S315000002D0674BF16BD3F800C0664B674FC3ED236ADB
S315000002E083ED247AC3ED257AA3F88800C3F89CC071
S315000002F0C3F898E0C1ED016A81ED027AC1ED037A97
S31500000300C1F810E0C1F814C00880C5ED116A85ED8A
S31500000310127AA5F84000C5ED137AC5F850E0C5F885
S3150000032054C0564DC2ED167AD5ED007A544DC2ED45
S31500000330146AD5ED006AA2F84C005248316C006888
S31500000340514D82ED157AC2F85CE0C2F860C02D68A6
S3150000035008604E484D60006887EEA67A98664C485D
S31500000360C3ED0E7A00684B49D8674B480968D0ED53
S31500000370007AD966494D4A492D6809681564C3F85B
S315000003808010484D48492D680988484EC2ED0B7AC1
S315000003905562118483ED0B7A96ED007A4FF0010CCD
S315000003A067EE867A27EE067A414D42482278424920
S315000003B02D68006882EA0C02C3ED037A83ED027AA7
S315000003C087F800C022709D61C1F8080103B0F0BD36
S315000003D02A7C32B9144A2B74936814499B6B1068B3
S315000003E09847134B9FED350A1F689E683846B369D8
S315000003F098474FF48072324938460988F369ADF858
S315000004000610ADF8042001A9984733E7C002002082
S31500000410D415010067010020F001002066010020CC
S31500000420BF0200208804002050160100D8020020D8
S315000004309C150100440100203C010020F304B53F57
S315000004405001002070010020200400206E010020D1
S315000004500004002068010020280100206C01002013
S315000004602C01002034010020300100201003002060
S3150000047024010020FC040020F401002038010020A3
S31500000480180100201001002014010020580100204E
S3150000049048010020600100202001002040010020CA
S315000004A04C0100200C0100206A0100205C010020A4
S315000004B01C01002054010020E0090020000000007B
S315000004C06401002010B500244F4A504B14701C7074
S315000004D000F074FF002840F092804D4B4D49B3F870
S315000004E0882091ED006A07EE902ADFED4B6AD3ED86
S315000004F0034AF8EEE77A93ED242AD3ED252A93ED05
S31500000500263AD3ED273A454886EE264A0280444AE3
S3150000051084EEA77A106CD3ED064A90ED005AD0ED22
S31500000520015A93ED1A6AD3ED1B6A3E483E4A80EDA6
S31500000530002A3E48D3F88CC0C0ED002A3C48D2F8C9
S3150000054040E080ED003A3B483B4CC0ED003A3B486A
S31500000550C4F800C080ED004A3948D3F87CC0C0ED2D
S31500000560004A3848D3F8804080ED005A3648C0ED3E
S31500000570005A364880ED006A3548C0ED006A3548B5
S31500000580C0F800E03448C0F800C034484FF0010C11
S315000005900460334C334884ED007A93ED0E7AD3ED44
S315000005A00B5A93ED026AC7EE256AD0F808412E4829
S315000005B0896880ED007A86EE277A2C4B2C481960E4
S315000005C02C4B408B83F800C0B2F834C02A4B516ADA
S315000005D0A3F800C0294BB2F836C0A3F800C0284BD8
S315000005E01880108C274B284A18802848284BC0EDC5
S315000005F0006A284883ED007A0460116010BD204629
S31500000600BDE8104000F0E0BEF001002067010020C8
S31500000610FC04002000040020B6C307406C01002043
S315000006201003002028010020200400202C010020B7
S315000006303001002024010020340100203C0100206C
S315000006401C01002010010020140100205801002088
S315000006506001002040010020480100204C010020DC
S3150000066020010020E0090020380100205001002070
S315000006708804002066010020700100206E01002021
S31500000680680100206A0100200C01002018010020EA
S315000006905C0100205401002038B5664A1378013306
S315000006A0DBB21370002B27D1634C2378012B00D0CB
S315000006B038BD624B62499A681868536A9847614B1D
S315000006C061499A681868D36A9847604B60499A6886
S315000006D01868536B98475F4B1B782BB95E4B5F4985
S315000006E09A681868936B984700F062FE002323709F
S315000006F0BDE8384001F00AB8594B5A49D3ED0C5AB7
S3150000070091ED066A1D6958485C6A056057485D693F
S31500000710046057489C6A05609FED567A56489D6965
S3150000072004605648DC69056055481D6A04605548F2
S31500000730D3F8F440056054489D6804605348DC686B
S3150000074005605348DD6B046052481C6C05605248D6
S315000007505D6C04605148CC790560514866EE076AC5
S31500000760C0ED005A4F4865EE874A80ED006A4E4854
S31500000770DFED4E7A04700C7A4D48CD6E04704C79DC
S315000007804C48D3F870E004704B484C4C90ED076A27
S3150000079090ED037A25604A4D4A4CED6B84ED006A74
S315000007A02D88494C66EE275A84ED007A67EE277A43
S315000007B007EE105AB8EE477A90ED1A4A84EE875A39
S315000007C0D1ED1C4A86EE876AD1ED1D6A93ED1B7A40
S315000007D005693E4CD0F814C025603D4DD3F8840021
S315000007E0C5F800C0D3F880C000233A493A4C81EDE1
S315000007F0004A3A49C1ED004A3949C1ED006A394912
S3150000080081ED007A3849C1F800E03849C1F800C0E6
S31500000810374908603749384881ED005A374980ED35
S31500000820006AC4ED007AC1ED005A137007F0A6F80D
S315000008303AE700BFF5010020F4010020BC160100D4
S31500000840E004002098140100F4020020D4150100F1
S3150000085018040020C002002050160100D802002013
S31500000860D0050020E0090020880100208401002036
S3150000087094010020EBC91841900100209801002046
S315000008809C010020A0010020E8010020E4010020D6
S31500000890EC010020C8010020CC010020D00100207E
S315000008A0DC010020C0010020F1010020E02E65429D
S315000008B0F2010020F301002060080020A4010020BE
S315000008C010030020B8010020B0010020AC01002078
S315000008D0BC0100208C010020A8010020D8010020C6
S315000008E0D40100207C01002074010020800100203A
S315000008F078010020E0010020C4010020B40100209E
S3150000090010B5046882B06268136933B10121526977
S31500000910684600928DF80410984708F077FD6268E3
S31500000920136933B102215269684600928DF80410AA
S31500000930984702B010BD00BF30B4EFF31084012316
S3150000094083F31088144B1A682AB94FF0400C134DE4
S31500000950EA7085F803C01A6801321A6084F31088B9
S31500000960020A0F4C120152FA80F044F82010EFF3FD
S315000009701082012181F31088196811B119680139B3
S3150000098019601B681BB980200449CB70C87082F3BC
S31500000990108830BC704700BFAC0C0020000D08402A
S315000009A0000808402DE9F041446882B0656F2E6A60
S315000009B0308D00286AD100222B680092ADF8042001
S315000009C0002B00F09780DA6895F90410186893698F
S315000009D06A4698472B6895F90610DA68186893698D
S315000009E00DF1020298472B6895F90710DA68186826
S315000009F0936901AA9847BDF80030656F07EE103A73
S31500000A00BDF80230B8EE477A07EE903ABDF80430EA
S31500000A10F8EE677A06EE903AB8EE666AD6ED064AC2
S31500000A20D6ED055A96ED075AD6ED043AC5EEA46AF8
S31500000A3096ED084AC3EEA45A37EE457A77EEC57AA4
S31500000A4066EE866A27EE657A67EEE57A66EE846A72
S31500000A50AB6984ED027AC4ED047AC4ED056A33B15C
S31500000A6001228DF80020EA6968460192984708F04D
S31500000A709DFC626F936933B103218DF80010D26932
S31500000A8068460192984702B0BDE8F0816B69E16C57
S31500000A905A68236D41F4803143F48033D2E90275FC
S31500000AA0D2F80480C4E91313FFF746FF708D216D59
S31500000AB0FFF742FFB08DE16CFFF73EFFF08D216D31
S31500000AC0FFF73AFF308EE16CFFF736FF708E216D2F
S31500000AD0FFF732FF0221D8F8000005F0DDFE022103
S31500000AE0386805F0D9FE2868022105F0D5FE656F45
S31500000AF02E6A60E79FED036AF0EE467AB0EE467A1C
S31500000B008CE700BF0000000008B51A4B1B78E3B164
S31500000B10194B93ED000A194B1B78E3B1184BD3ED33
S31500000B20000A184B1B78E3B1174B93ED001A174BCD
S31500000B301B78E3B1164BD3ED001A08F035FB08F02D
S31500000B40E3FA0022134B1A7008BD0C4B9FED120AF4
S31500000B501B78002BE2D10B4BDFED0F0A1B78002B25
S31500000B60E2D10A4B9FED0C1A1B78002BE2D1DFED88
S31500000B700A1AE2E76202002010020020600200204A
S31500000B8008020020610200200C0200205F02002003
S31500000B90040200205D020020000000002DE9F84F4D
S31500000BA02DED108B9FEDBAFADFEDBAEADFEDBA4A0A
S31500000BB09FEDBAEAB6EE007AB94CBA4D9FEDBA6A25
S31500000BC0256005259FEDB94AF3EE041AB84FDFED0F
S31500000BD0B97A87ED00FAB84F9FEDB85AC7ED00EA2B
S31500000BE0B74F0020C7ED004AB64FB74B87ED00EA76
S31500000BF0B64FB74987ED007AB64FDFEDB76A3B606F
S31500000C00B64FDFF89CC43B60B54FDFEDB6BA39602E
S31500000C10B54FB64A3B60B64F10703D60B54FB64A09
S31500000C203960B64F9FEDB6BA87ED006AB54F9FEDB6
S31500000C30B62AC7F800C0B54FDFEDB52A87ED004AE2
S31500000C40B44FF2EE0EAA3B60B34FB1EE04AAC7ED65
S31500000C50001AB24FDFEDB29A87ED006AB14F9FEDF1
S31500000C60B29AC7F800C0B14FDFEDB18AC7ED007A7E
S31500000C70B04F9FEDB18A87ED005AB04F01203A6020
S31500000C80AF4FB3EE090A3A60AE4F40263960AE4F19
S31500000C90B0EE003A87ED004AAC4F10253B60AC4FF2
S31500000CA04FF07E5EC7ED007AAA4FDFEDAB3AC7ED97
S31500000CB0006AAA4FDFEDAA0AC7F800C0A94FDFF8FD
S31500000CC0E4B3C7ED00BAA84F9FEDA8CA3B60A84F92
S31500000CD0DFF8D4A3C7ED007AA64FDFEDA7CAC7EDAC
S31500000CE0006AA64FDFF8C493C7F800C0A44F9FED73
S31500000CF0A5DAC7ED007AA44FF7EE08DA87ED005AB9
S31500000D00A24FF4EE00FA3960A14FDFEDA25A396026
S31500000D10A14FA24C87ED004AA14F4FF47A783B6071
S31500000D20A04F9FEDA11A3A60A04FC7ED004AA04F11
S31500000D303960A04981ED00BA9F4981ED002A9F499B
S31500000D400A609F49C1ED007A9E49C1ED002A9E497D
S31500000D50C1ED00AA9D49C1ED004A9D4981ED00AA59
S31500000D609C49C1ED009A9C49C1ED006A9B4981ED01
S31500000D70007A9B4981ED009A9A4981ED005A9A4979
S31500000D80B5EE005AC1ED008A9849C1ED001A98499E
S31500000D9081ED008A9749C1F800B0974981ED002A94
S31500000DA09649C1ED002A964908709649C1F800A0F7
S31500000DB09549C1F8009095490A60954981ED000A68
S31500000DC094490E60944981ED003A94490D60944926
S31500000DD0C1F800E09349C1ED003A9349C1F800E03B
S31500000DE09249C1ED000A9249C1F800E09149C1ED6E
S31500000DF0007A9149C1F800E0904981ED00CA904916
S31500000E00C1F800E08F49C1ED00CA8F4981ED00DAD3
S31500000E108E49C1ED00DA8E4981ED003A8D4981EDAA
S31500000E20007A8D490B608D49C1F800C08C4981ED6F
S31500000E30005A8C49C1ED00FA8B49C1ED005A8B4925
S31500000E40C1ED005A8A49C1ED005A8A490B608A4BA6
S31500000E508A49C3ED006ADFED8A6A8A4B1A604FF051
S31500000E600202894BC3ED006A884B1A80884BD4ED89
S31500000E70014A1870874B884A83ED006AA389556832
S31500000E8006EE903A854BF8EEE65AC3ED003A0FE1CE
S31500000E909A99193F6666263FCDCC4C3F9A99593FA1
S31500000EA0083000206F12833ACDCCCC3D00000042C2
S31500000EB0E82F002000007A44EC2F00203BDF7F3F24
S31500000EC0F02F0020F42F0020000020410C300020DD
S31500000ED00000484304300020CDCC4C3DFC2F0020C0
S31500000EE0F82F00200000804300300020D43000207E
S31500000EF0A4300020143000200000C8422430002016
S31500000F0000007A46283000200000FA4418300020FD
S31500000F10BD3786351C3000202030002040300020B0
S31500000F209A99193E4830002000504347303000203F
S31500000F30000096432C300020EC51783F44300020CE
S31500000F40383000204C300020343000203C30002067
S31500000F50842F0020942F00206666663F902F002085
S31500000F600000C843882F00208C2F00200000484234
S31500000F709C2F0020B42F00200000803CB02F0020C2
S31500000F80A02F002000000044982F0020AC2F002046
S31500000F90B82F002000000043A42F0020900300205B
S31500000FA0A82F0020702F0020002474496C2F0020E9
S31500000FB0682F00207C2F0020782F0020742F00201F
S31500000FC0802F0020642F0020582F0020342F00206F
S31500000FD0442F00204C2F0020502F0020542F00209B
S31500000FE0482F0020402F0020382F0020302F0020CF
S31500000FF03C2F00205C2F0020602F00202C2F00208B
S31500001000A0300020683000205430002058300020E6
S315000010105C300020AC30002064300020A830002076
S31500001020703000206C30002060300020F82E002048
S31500001030FC2E0020002F0020042F0020E02F00208F
S31500001040E42F0020C42F0020C02F0020D82F00201E
S31500001050CC2F0020D02F0020D42F0020C82F002016
S31500001060F42E002050300020282F00200C2F0020C6
S31500001070082F0020DC2F00201030002074300020C4
S3150000108000000000BC2F002084300020A230002089
S31500001090A1300020142F002000040020102F002073
S315000010A09A99993E0000FA4352B87E3F00007A436F
S315000010B02388B8EE666A08FB03F306EE903AF8EE6C
S315000010C0E66A85EE815AC6EEA45A2469224B25EEBD
S315000010D0877A1C60214C224B84ED006A214C1C60EF
S315000010E0214B04F580741C60204B04F580741C6051
S315000010F01F4B204C1C60204B204C1C60204B214C6D
S315000011001C60214B214C1C60214B224C1C60224B45
S31500001110224C1C60224C234BD4ED0D6A93ED010A40
S31500001120214B146883ED005A204BD26883ED007A78
S3150000113086EEA77A1E4B0C601D601E4B1A601E4B76
S3150000114083ED007A07F098FFBDEC108BBDE8F84FF1
S315000011501A4808F021B800BF7830002080300020FF
S31500001160B030002054911640B4300020B830002032
S3150000117088300020651400008C30002071140000B7
S31500001180903000208114000098300020591400008F
S3150000119094300020491400009C300020D513000034
S315000011A010030020FC040020202F00207C300020AB
S315000011B0182F0020242F00201C2F002000000020C4
S315000011C0F8B5644E3378042B7DD0634C634D2B8881
S315000011D0032B74D0624F3B88FF2B6CD008F056F877
S315000011E0288004280DD8DFE800F0033C200C0F000F
S315000011F0002123785B4A012B118075D000225A4BBF
S315000012001A7000232370F8BD584F3B78002B74D01A
S315000012102378032B0FD0052B6CD0012B64D0002331
S31500001220514A2B8013703370EBE708F035F82378BA
S315000012303880032BE2D14E4B1B7863B900234D490E
S315000012404D4A0B6013604D484D4D4E494E4A2B603A
S3150000125003600B60136007F07BFF0122424B1A709C
S31500001260CFE72378022B6ED008F01CF8DFED477A23
S31500001270B4EEE70AF1EE10FA34DCDFED457AB4EEAF
S31500001280E70AF1EE10FACCBF012300239FED417A65
S31500001290F6EE087AB4EE470AF1EE10FAB4EE670AF3
S315000012A0C8BF0323F1EE10FAC8BF04232D4A1380EA
S315000012B000232370F8BDFE2007F06AFF8EE7237037
S315000012C000F07CF986E7344B012093ED010A07F024
S315000012D0D3FE324807F060FF0122FF231E4C337015
S315000012E0227073E70223D1E7FFF70EFC01221E4BA3
S315000012F01A7086E700F0CCF883E707F0F5FF1D4B80
S3150000130083ED000A07F0F6FF1B4B83ED000A07F09A
S31500001310F7FF1A4B83ED000A07F0F8FF184B83ED31
S31500001320000A07F0F9FF174B83ED000A07F0FAFFF2
S31500001330154B1B4883ED000A07F0FAFF00F0A8F8EA
S3150000134001233B7064E707F0E3FE0022064B1A70A8
S315000013508AE700BF5E020020280200206802002003
S315000013606402002066020020F60100205D020020D3
S315000013705C020020240200201C0200202002002023
S315000013801802002014020020000200200AD7233F82
S31500001390CDCC0C3FD7A3303FFC040020000000203A
S315000013A02C020020014B1878704700BFF601002080
S315000013B00122014B1A70704759020020014B187820
S315000013C0704700BF5B020020014B1870704700BFDA
S315000013D05B0200201B4BF7EE007A9A8837EEC00AB4
S315000013E007EE102A5A6FDB88B8EEC77A77EEE00A66
S315000013F037EEC11A07EE903A20EE070AFAEEEF7AB8
S3150000140060EE870A21EE071A30EE270A70EEA70A69
S3150000141071EE277ABCEEC00AFCEEE00AFCEEE77A33
S3150000142000B5536987B09A6818686946CDED027AA7
S315000014308DED000ACDED010A1369984707B05DF8F6
S3150000144004FB00BFF0060020024B9A6802601B698D
S315000014500B607047F0060020014B93ED050A7047BC
S31500001460F0060020014B186804F0B4BB8417010095
S31500001470024B9A6818689368184700BF9C150100CC
S31500001480024B9A681868D368184700BF9C1501007C
S3150000149070B586B001A807F067FF304BDFED304A24
S315000014A0D3ED137AB6EE007A67EEA47ADDED015A33
S315000014B0DFED2C2A67EE877ABDF808302A4A06EE59
S315000014C0903A92ED005A25EEA46A67EEA27A9FED55
S315000014D0272A274C27482849284A25680468086887
S315000014E01168274AB8EE663AC2ED005A254A26EE3A
S315000014F0026A1560244A254D1460254ADFED253A17
S315000015001060254A85ED006A1160244A9FED244A41
S31500001510C2ED005AC7EE855A85EE836AC6EE237A77
S31500001520F7EE086A67EE847A67EEA66A27EE877A90
S315000015301C4A1D4E1D483380137880ED005A1C4C02
S315000015401C481D4983F00103C4ED007AC0ED006A12
S3150000155081ED007A137006B070BD00BF90030020C5
S3150000156071C49C3F6666663F18020020CDCC4C3F96
S31500001570240200201C020020200200201402002069
S315000015803C01002034010020280100203801002001
S315000015902C010020DB0FC940240100201C01002083
S315000015A000007042670100206C010020300100201D
S315000015B0200100205001002044010020024B9A68BF
S315000015C018681369184700BF9C1501003D4B1B782E
S315000015D05B0703D53C4B1B78012B00D0704710B539
S315000015E03A490A78012A5DD039483A4A90ED107A8C
S315000015F0D2ED1A7A384C3948C4ED007A80ED007A7B
S315000016000B70374B9FED376AD3ED006AF4EEC66A6E
S31500001610F1EE10FA38DD83ED006AF2EE045AF0EED0
S31500001620466AB7EE006AF1EE044A77EEC67A37EEFE
S31500001630647A77EEA77A37EE257A67EEA67A9FED7B
S31500001640295A294BD16E1B6CD2F87CC0D2F8800087
S31500001650264A93ED004A1160254AD3F804E082ED4C
S31500001660007A87EE857A77EE067A224B224983ED59
S31500001670004A224BC1F800C0C3F800E02049214BC4
S315000016800860C3ED007A10BD9FED1F5AF4EEC56ADF
S31500001690F1EE10FA0ED4B2EE045A26EE855AC5EED5
S315000016A0065ABEE70C4A0D4BD2ED007A93ED007A4E
S315000016B0084AA6E7F0EE455A83ED005AF0EE456A71
S315000016C0AFE700BF58020020300000205A02002079
S315000016D020040020FC040020FC010020F80100206A
S315000016E02C0000200000C8421003002060010020EA
S315000016F040010020100100204801002014010020B4
S315000017004C010020580100200000000008B5FFF73A
S3150000171055FE012800D008BD044B9A681868136965
S315000017209847BDE808400220FFF74EBE9C15010011
S3150000173010B590B101281ED002280CBF012200224C
S3150000174040F20D110E4804F0E5FABDE81040002203
S315000017504FF483710A4804F0DDBA012240F20D11FC
S31500001760074804F0D7FABDE8104001224FF4837110
S31500001770034804F0CFBA40F20D110022F0E700BF93
S31500001780A40500202DE9F04F4FF0120A4FF0290969
S315000017904FF0080897B0944D06AC0FCD0FC42B68D8
S315000017A0DFF8DCB224F8023B0BAE1B0C2370BBE85F
S315000017B00F000FC6BBE80F000FC69BE807008B4B58
S315000017C003C683F800A08A4B03AF83F80090894BC9
S315000017D0328083F80080884B884C93E8070003C763
S315000017E04FF0420C0DF1180E04EB0A053A7001E0B9
S315000017F01EF801CF04F801CFAC42F9D1804B452148
S315000018000BAA03F1290001E012F8011F03F8011FDA
S315000018108342F9D17B4B4D220DF10D0103F10800F6
S3150000182001E011F8012B03F8012F8342F9D144F2AC
S31500001830810508244FF4C061734A744B15807448BF
S31500001840744A04801180D3E9000104F057F9724B01
S31500001850DFF8309293E807001368009201909847EA
S315000018606E4B0027D3E900519C68284623689847A9
S3150000187063694C4628469847694BDFF80CE2D3F873
S31500001880C4C0684B684E9D6EBCE80F00AEE80F0002
S31500001890DCF800C0DFF8F481BCE80F000FC6604B2F
S315000018A09CE8030086E80300AEF11001103E0E61CD
S315000018B0C3F8C4100FCD0FC495E8070084E80700ED
S315000018C0A022D9F8181059480EF0C0F9574B02A9B2
S315000018D0C9F81830564BADF808709A681868ADF814
S315000018E00A7053699847534B6822D3F8DC30DFF807
S315000018F0A09193E80300504BDFF898A11C4683E8BB
S3150000190003004E480EF0A2F94C494D4B61605D6EE6
S315000019104C4C0FCD0FC429684D46442240462160E9
S315000019200EF094F9D8F83C60474BDFF86CC1D3F859
S3150000193090400FCE0FC5D8F8403096E8030085E8F2
S31500001940030093E803003F4B8CE8030094E8030090
S3150000195058228AE803003D48C8E90F9CC3F8108066
S315000019600EF074F9394B5146CAF80430384B394CED
S315000019709A681868936B9847374B4FF0010B5D6F69
S315000019800FCD0FC40FCD0FC42968702233482160D4
S315000019900EF05CF94FF47A623049A4F12003196223
S315000019A02F4B1F702F4B1A802F4B1F702F4B1F7002
S315000019B02F4B83F800B02F4B83F800B02E4B1F70CF
S315000019C02E4B1F70FEF77EFDFEF71AFC5A461121BC
S315000019D0902006F053FDDDE900201369984717B003
S315000019E0BDE8F04FFFF7DAB8B8130100BE020020D9
S315000019F09D020020A8020020CC130100AB020020AB
S31500001A00730200209F020020CA02002084170100F2
S31500001A10C8020020CC0200209C150100041401001D
S31500001A2098070020E009002000040020FC040020A4
S31500001A30BC160100600800201804002020040020C5
S31500001A40D0050020F4020020400900208804002070
S31500001A50501601006C030020F006002090030020C1
S31500001A60C1020020CE020020C5020020C0020020D4
S31500001A70C2020020BF0200206B0200206A02002082
S31500001A80D8130100E0040020E0020020100300202B
S31500001A9054030020D8020020080300202DE9F04757
S31500001AA09E4C9F4D22782B7882B09A4278D0237034
S31500001AB0002B70D19B4EDFF8C492337889F8003042
S31500001AC0DFF8BCA2FEF79CFB9AF8003099F80020DC
S31500001AD0934204D0032B40F20E818AF80020924BE9
S31500001AE09F68D3F800803B6A40468E49984799F82C
S31500001AF000303078032B00F0F480FFF719FEFFF773
S31500001B005FFBFFF74FFC894C80B22388884D8342E8
S31500001B10288042D0874B01285B685B68DE6900F04D
S31500001B203581854B1A68854BD1681068D1F82890A5
S31500001B30A3F178028249C847824B9A68824B916822
S31500001B401068D1F82C90814A8149C847FB68404605
S31500001B50984796F924207F4B02F1C00153F82100E3
S31500001B606FF3104043F8210053F82130BFF35F8F25
S31500001B70012153099B0002F01F0203F1604303F5A4
S31500001B80614301FA02F2C3F880211A602B88238090
S31500001B9002B0BDE8F087012B0AD002B0BDE8F0879D
S31500001BA0012A05D0002AF8D1DFF8D0915D4E87E7EB
S31500001BB05D4B5C4E1F689D68314638462B6A9847D8
S31500001BC03478012C76D0022C5AD0002C49D0DFF87C
S31500001BD0B48198F800405CB1012C00F01D8130788A
S31500001BE000225D4B1A70FFF7A3FD02B0BDE8F08737
S31500001BF05A4B9FED5B7A1B88DFED5A7A00EE103A5E
S31500001C00B8EE400A30EE470A20EE270ADFF8789150
S31500001C10AB6989ED000A38469847ADF80440384666
S31500001C20EB69ADF8064001A99847D9ED007A9FED1A
S31500001C304E7AF4EEC77AF1EE10FA07DD9FED4B7A95
S31500001C40F4EEC77AF1EE10FA00F1C3800022424B9F
S31500001C501A7030780128C3D198F80030012BC2D011
S31500001C60BEE74FF44171424801AA04F029F89DF8F5
S31500001C700430012B00F0B18000223E4B1A70A6E71B
S31500001C804FF4007101AA3A4804F01AF83A4A9DF84E
S31500001C9004101378012B00F0B280002B97D1012994
S31500001CA0EAD1344C20780130C0B20A2800F23A81D9
S31500001CB020708CE701AA4FF441712D4804F000F81A
S31500001CC09DF80420002A00F091800022294B1A700A
S31500001CD0214B1B78002B3FF47AAF3846EB689847C8
S31500001CE075E7002800F0D280022804BF89F80000BA
S31500001CF08AF8000001E7012B89F8003000F0E38044
S31500001D00032B00F0D880002B7FF4E9AE064BD3F806
S31500001D1000809F684046FB689847E4E6C5020020BD
S31500001D206B020020C10200209C150100D202002097
S31500001D30D0020020880400206C03002068070020E1
S31500001D40B14E0000E0040020600B0020BC1601002C
S31500001D50792B000000600040C3020020D40200205E
S31500001D6000E0FF44032800C0000048C300004843C9
S31500001D70A4050020C4020020C2020020C0020020E8
S31500001D806A020020BF0200206C02002096F924306F
S31500001D9067495A0903F01F03984002F1200341F8EE
S31500001DA02300BFF34F8FBFF36F8F624A624B1168F8
S31500001DB0A3F17802CE680868B66A6049B047604AFF
S31500001DC0604B9168604A8E680868F66A5F49B0475A
S31500001DD0DCE601225E4B1A703BE75E4A137801335C
S31500001DE0DBB20A2B00F281801370F0E659490B78BA
S31500001DF00133DBB20A2B00F282800B7068E7002900
S31500001E007FF43AAF534803780133DBB20A2B92BF13
S31500001E10037001701170DAE64F4B1A7C32B91C74EC
S31500001E204E4B4F499A681868936B98474D4B9FEDF8
S31500001E304E7A1B889FED4D6A07EE903AF8EE677A68
S31500001E4077EE677ADFED4A6A67EE867AF4EEE67A2F
S31500001E50F1EE10FA474CC4ED007A3CDDC4ED006AA1
S31500001E60AB699FED450A38469847D4ED007AFDEEFA
S31500001E70E77A40F2011317EE902AADF80430EB69C9
S31500001E80384601A9ADF806209847E2E601232070FE
S31500001E9089F8000028708AF800004FF47A60374A03
S31500001EA037491370374A08801370FEF70BFBFEF7AD
S31500001EB0A7F9307821E6344BD3F800809F68404676
S31500001EC03B6998470FE6304BD3F800809F68404641
S31500001ED0BB68984707E69FED2D7AF4EEC77AF1EED8
S31500001EE010FA0ED584ED007ABAE7194B14701B78F8
S31500001EF0012B3FF46CAE3846AB68984767E60A702C
S31500001F00EBE6B0EE007AF4EEC77AF1EE10FAA7D857
S31500001F10B8EE007AF4EEC77AF1EE10FAA4BF002309
S31500001F2023609DE7237038462B69117098474EE66B
S31500001F3000E100E06C03002068070020A50900000E
S31500001F40E0040020600B0020BC160100010900001F
S31500001F50C3020020C402002088040020501601009D
S31500001F60D8020020D402002000E0FF4421F4BD3D49
S31500001F70000034437002002000000000BF02002071
S31500001F80CE020020C20200209C150100000034C3CE
S31500001F9010B50446FFF706FA80B974B1094B186804
S31500001FA003F018FE084B01219A6818685369984790
S31500001FB0064A138843F00103138010BD012007F081
S31500001FC0E7F8EAE7841701009C150100C602002025
S31500001FD00379032B04D0042B1DD0022B0AD07047A3
S31500001FE00E4B1B78022BFAD00D4B0E499A681868D7
S31500001FF0136B184700B50C4B83B0DA6805211868D7
S3150000200093690DF106029847BDF80620074B1A8022
S3150000201003B05DF804FBFEF73FBB00BFC102002022
S315000020209C150100C602002050140100D4020020B5
S31500002030012208B5034B1A601A64FFF7A3FBFFF7EA
S315000020402DFDFCE700700040022800D07047024BCF
S315000020500248596803F082BF10140100A40500204D
S3150000206008B5FFF7E5FF002008BD00BF03460122C3
S3150000207000201A71704700BF0346D3ED057A27EE9C
S31500002080800A002083ED070A704700BF08B50346A3
S315000020900868D3F88C21C3F87C012AB19068B3F99B
S315000020A07E11436910689847002008BD38B5D0F8FE
S315000020B08C3104460D462BB19A6891ED040A1269DB
S315000020C018689047AE4604F1800CBEE80F00ACE8F5
S315000020D00F00BEE80F00ACE80F009EE80F008CE88A
S315000020E00F00002038BD00BF03460022D3F80CC005
S315000020F000B5D3F810E0C1F800C0C1F804E0D3F889
S3150000210018C0D3F838E00A74C1F80CE0C1F808C06A
S315000021101B7A1046012B08BF1A460A745DF804FBA9
S315000021202DE9F04F4FF000088D692DED028BA0F8D8
S31500002130048080F8A08080F8078080F80880B5F8D1
S31500002140883080F8258007EE903A95ED067A9FED67
S31500002150608ADFED608AF8EE677A0446002667EE4D
S31500002160887A27EE287A05F1880A05F1680B95ED3D
S31500002170010A816600F16C0283B0C6608661C0F810
S315000021808C6006620F4650465946C4ED057A84EDCA
S315000021901F7A0DF067F895ED1E7AD5ED047ADFED1E
S315000021A04E5A95ED016A27EE257A67EEA57A27EE57
S315000021B0067A67EE867AF0EE006A77EE265A37EEF2
S315000021C0A66A36EEC74A76EEE76A95ED060AC7EEC8
S315000021D0254A87EE865A84ED337AC4ED2E7A84EE4C
S315000021E0257AC6EE867A5146F7EE000AC4ED354AE0
S315000021F084ED305A84ED347AC4ED2F7A20EE280A25
S3150000220004F14800C4F8C460C4F8C860C4F8B060FB
S31500002210C4F8B4600CF0C4FF04F5B07984F84480C7
S3150000222095ED070A48460DF03DF9D5ED0F2A95EDD7
S31500002230013A95ED0E2AD5ED1C1A95ED1D1AD5ED30
S31500002240270A95ED260A484662EE882AB5F88810D0
S315000022500DF032F995F82730012B1ED0BB684BB133
S31500002260D3E90112186812689047BB689A68186823
S3150000227053689847FB6833B1D3E9011218681268AE
S31500002280C4F88C3190470020144B84F82400236056
S3150000229003B0BDEC028BBDE8F08F95F828305BB932
S315000022A004F1D80001900DF009F895ED010A5946A0
S315000022B001980DF027F8D1E795ED271AD5ED010A1B
S315000022C095ED080A04F59A700CF0FCFDC6E700BF10
S315000022D05077D63DD7B3DD3FDB0FC9404350534D52
S315000022E02DE9F0418C692DED028BB4F8883094ED20
S315000022F0067A07EE903A9FED4D8ADFED4D8AF8EEAD
S31500002300677A054627EE287A67EE887A04F1880709
S3150000231004F16808816600F16C0294ED010A4146F9
S31500002320384685ED1F7AC5ED057A0CF09BFF94EDD6
S315000023301E7AD4ED047ADFED3F5A94ED016A27EE5A
S31500002340257A67EEA57A27EE067A67EE867AF0EEAC
S31500002350006A77EE265A37EEA66A36EEC74A76EE5A
S31500002360E76A94ED060AC7EE254A87EE865A85ED9A
S31500002370337AC5ED2E7A84EE257AC6EE867A39460C
S31500002380F7EE000AC5ED354A85ED305A85ED347A0B
S31500002390C5ED2F7A20EE280A05F148000CF000FF63
S315000023A0002305F5B07685F84430304694ED070AEB
S315000023B00DF078F8D4ED0F2A94ED013A94ED0E2A3B
S315000023C0D4ED1C1A94ED1D1AD4ED270A94ED260AB5
S315000023D0304662EE882AB4F888100DF06DF894F84D
S315000023E02730012B04D0BDEC028B0020BDE8F08124
S315000023F094F828305BB905F1D80094ED010A4146FE
S315000024000CF080FFBDEC028B0020BDE8F08105F5E5
S315000024109A7094ED271AD4ED010A94ED080A0CF08F
S3150000242051FDBDEC028B0020BDE8F0815077D63D12
S31500002430D7B3DD3FDB0FC94038B50023856E0446B0
S31500002440AA69037180F8243092F82730012B0ED048
S31500002450AB681BB19A681868136B9847EB681BB199
S315000024609A681868536898470020206038BD92F82B
S3150000247028301BB9D8300CF037FFE9E700F59A7021
S315000024800CF056FDE4E700BF38B5002204460023F1
S31500002490816E48308D69E360A361C4F88C30236295
S315000024A0C4F8C430C4F8C830C4F8B030C4F8B43086
S315000024B0E366A367A28084F8A020E271227284F802
S315000024C044200CF079FD04F5B0700CF0F1FF95F89E
S315000024D02730012B11D0D4F88C3153B19A68186883
S315000024E093689847D4F88C3100219A6818689369E4
S315000024F09847002084F8240038BD95F8283023B981
S3150000250004F1D8000CF0F0FEE5E704F59A700CF043
S315000025100FFDE0E770B52DED028B9FED3A0A90F8BE
S31500002520A13082B0032B8DED010A03D002B0BDECC1
S31500002530028B70BD836E04469D69D0F88C6195F858
S315000025402730012B1CD090ED230A2B78012B24D0A9
S31500002550022B09D09DED010AD5ED060A0DF002F811
S3150000256002B0BDEC028B70BD002EF3D0B368F0EE66
S31500002570400A1B6A94ED060A306801A99847E9E704
S3150000258095F8283043BBD0ED230A90ED040A05F1F7
S315000025908801D8300CF016FFD7E7D4ED067A94ED13
S315000025A01D7A37EEC00AD4ED1E6A94ED1C8A20EE21
S315000025B0077A84ED1B0A20EE088AD4ED1F0A37EE4F
S315000025C0260A0CF0CFFFF0EE407A38EE000AC4ED92
S315000025D01E7A8DED010ABFE7B5F8883095ED267AAB
S315000025E007EE903AF8EE677A90ED040A67EE877A7E
S315000025F0D0ED230A27EE800A00F59A700CF09EFCB7
S31500002600A3E700BF00000000F0B52DED028B00230C
S31500002610826E87B09569CDE9023395F88430044619
S31500002620012BD0F88C6122D0032B0CD0DFEDB17AD0
S31500002630B0EE677A002084ED037AC4ED047A07B021
S31500002640BDEC028BF0BD90F8A0100129EED190F8F8
S315000026502430002B40F0838084F8241095F8253030
S31500002660012B13D09DED027ADDED037AE2E790F8B7
S31500002670A0100129DAD190F824303BBB90F8A230A3
S31500002680012B00F08C80002BE8D1E5E794F844306C
S31500002690012BE7D104F1480094ED220A01900CF0D9
S315000026A0C9FD94ED230AB5EEC00AF1EE10FA0198C1
S315000026B000F3BD8100F1BB819DED027AB5EEC07AD3
S315000026C0F1EE10FAC8BF9FED8B7ACDE790F87C212A
S315000026D0012A5BD0022B00F09781002E00F04B817F
S315000026E0B3683068DB699847A36ED4F88C619F693C
S315000026F09FED800A63798DED040A012B00F0698154
S31500002700022B00F04981002B00F07281DFED787A10
S31500002710D7ED030A60EEA70A0CF024FF204684EDED
S31500002720060AFFF7F7FEA26E8DED030A936993F88A
S315000027302510012900F0F380E179002900F0F680E8
S31500002740012900F01A819FED6B8A94F8A130032BC2
S315000027508DED028A82D1022384F824307EE7022B93
S3150000276000F05981002E00F06081B3683068DB69A3
S315000027709847A36ED4F88C619F690023049363790C
S31500002780032B63D8DFE803F05A82651A002E00F0A7
S31500002790F280B36802219B6930689847A0E7136905
S315000027A0002B3FF45BAF03218DF81410526904A887
S315000027B004929847022384F824304FE794ED2A0ABE
S315000027C0D4ED057A20EE270A94F8A1308DED040A9F
S315000027D0032B00F05581DFED467AD7ED030A60EE54
S315000027E0A70A0CF0BFFE204684ED060AFFF792FE0C
S315000027F0A26E8DED030A966996F82510012904BF8D
S31500002800002384F84430E379052B12D8DFE803F07F
S31500002810746311030350136943B103218DF8141037
S31500002820526904A80492984796F82510012900F0E9
S3150000283078819FED308A94F8A13088E794F8A1302A
S31500002840042B00F02C81032B00F050819FED290A08
S31500002850C1E794ED060A94ED077AD7ED027A37EED2
S31500002860407ADFED236A67EEA67AF0EEC76AC7FE06
S31500002870E67A17EE103AF0EEE77A002BB8BFF1EEE3
S31500002880677A30EE270A8DED040AA4E73B78012B20
S3150000289000F01681022B00F0328194F87C3123B9C6
S315000028A094F8A130032B00F051819DED040A92E7C4
S315000028B094F8A13094ED2B8A032B00F0E88013697D
S315000028C0002B00F02B8103218DF81410526904A807
S315000028D00492984739E794F8A330012B00F0E4807E
S315000028E094ED038A1369002B3FF42FAF0421EBE725
S315000028F05077D63D00000000D4ED037A96ED0B7AB2
S3150000290096ED0E8A77EE877AF4EEC87AF1EE10FA33
S3150000291080F2A380B0EE678A94F8A13017E7002012
S3150000292084F84400E079012827D012D894ED038A70
S3150000293093ED0B7AD3ED0E7A38EE078AB4EEE78A7A
S31500002940F1EE10FAFFF601AF0123B0EE678AE371EC
S31500002950FBE6033801283FF6F6AE84F8441004F18E
S3150000296048000CF079FC01280CBF042303231FED5B
S315000029701F8AE371E9E62F46BAE694F8A330012BE5
S31500002980AED194F8A130022B00F09580032B1FEDF9
S31500002990278AA7D1E371A5E794ED060A94ED077A95
S315000029A0D7ED027A37EE407A5FED2F6A67EEA67AA8
S315000029B0F0EEC76AC7FEE67A17EE103AF0EEE77A4F
S315000029C0002BB8BFF1EE677A30EE270A8DED040AC8
S315000029D09CE63B78012B30D0022B43D094F87C3117
S315000029E01BB994F8A130032B73D09DED040A8DE634
S315000029F094F8A130032B7FF489AE94F87D31002B37
S31500002A006FD10223637181E6002EB4D0B3683068BB
S31500002A109B69984764E690F87C21012A15D026B177
S31500002A20B36830689B6998479FE62F46A5E602AAD9
S31500002A3004F180010CF0CAFA3EE6002ECED0B3684F
S31500002A4030685B6A04A99847C8E7002EEDD019469E
S31500002A50B36830689B69984787E6012294F8A130ED
S31500002A60E27174E6002EB9D097ED030A5FED607A45
S31500002A70B36820EE270A9B6A306804A99847ADE739
S31500002A8094F87D31002B5CD102236371A3E6E371D8
S31500002A901369002B7FF417AF8DED028A5BE60323E3
S31500002AA01FED6C0A637196E694F8A130042B5DD095
S31500002AB0022B7FF46BAF00231FED728AE37111E7DF
S31500002AC0002E3FF4EAAEB36830685B6A04A9984703
S31500002AD0E3E6002E89D0B3683068DB6A04A998471C
S31500002AE083E7012B7FF412AE63710FE694F87D3114
S31500002AF0002B34D102231FED810A63716BE6002E91
S31500002B003FF4CBAE97ED030A5FED877AB36820EE0C
S31500002B10270A9B6A306804A99847BEE68DED028AAB
S31500002B209CE584F8441004F148000CF095FB01285C
S31500002B300CBF042203221FED918A94F8A130E271A2
S31500002B4005E6012B7FF447AE637144E6002E3FF4A1
S31500002B50ACAEB3683068DB6A04A99847A5E6012BDA
S31500002B601FED9C0A7FF437AE637134E605231FED33
S31500002B709F8AE371B6E600BF30B5046883B0D4E936
S31500002B8000531A693AB101215B69684600938DF8D2
S31500002B90041090476368196819B1A36820689B6997
S31500002BA098472B79012B03D1A3682068DB699847E6
S31500002BB06368596821B1A36820681B6A98476368EF
S31500002BC01A6932B102215B69684600938DF80410D8
S31500002BD0904703B030BD00BF03461A7C00200A7040
S31500002BE09A8A5B8A9A4234BF002301234B7070474E
S31500002BF0062070470620704706207047062070475B
S31500002C000B7E91ED055A013307EE903AB1F840304C
S31500002C10DFED232A06EE103AF8EEE75A9FED214A39
S31500002C20B8EE466A25EE225A4B8B91ED0A7A07EEEC
S31500002C30903A8B8EDFED1C4A26EE046A06EE903A39
S31500002C4085EE854A91ED0B3AC6EE245AF8EE666A91
S31500002C5024EE077AD1ED0C3A66EEA56A37EE437A92
S31500002C60F8EEE77AC0ED086AC7EE236A67EE847A63
S31500002C7066EEA46A86EEA77A4FF0000C002267EE95
S31500002C80257AC0F80CC0C0ED077AC0F810C0C0F8AD
S31500002C9014C0C0F818C002808270828082607047BB
S31500002CA000007A44DB0FC9400000704210B5D0F82E
S31500002CB08C408CB103460022A168206889685A645A
S31500002CC09A618847A3682068DB689847A3682068EC
S31500002CD05B68BDE81040184710BD00BF38B5D0F896
S31500002CE0885045B10446FFF7E1FFAB6828685B688A
S31500002CF0984703232374002038BD00BF38B5D0F8A9
S31500002D00885065B1838A428A01339BB29342044656
S31500002D10838202D900210B4681829A4201D000208B
S31500002D2038BD237C012B0FD0022BF8D12046FFF7AC
S31500002D30BDFFAB682868DB689847AB6828685B68A6
S31500002D40984703232374EAE702232374E7E700BFC7
S31500002D50D0ED027AF5EEC07A0023F1EE10FAD0F843
S31500002D60902030B55568037144BF01230371037C7D
S31500002D700446032B83B002D0002003B030BDD0F848
S31500002D808C3069469A681868936A9847BDF800209F
S31500002D90B4F86030616ED31A01FA83F3217B63665F
S31500002DA0A4F8602051B9B4F926209A4204DC9B1A93
S31500002DB09FED1D4A636603E0002B2FDB9FED1B4A48
S31500002DC007EE903ADFED184AF8EEE77A94ED135ADB
S31500002DD067EEA47A94ED1B7A67EE857A37EEC77AAA
S31500002DE0D5ED025A37EE047AD4F89030D4ED1D6A48
S31500002DF05B68002093ED0E6AC4ED1A7AC4ED1B7A67
S31500002E00C7EE257A77EEE67A67EE867A77EEA67AC9
S31500002E10C4ED1C7AC4ED1D7A03B030BD13449FED9A
S31500002E20044A6366CCE700BFDB0FC9400000000020
S31500002E30DB0FC9C0FFFFFFFFF8B590F810C00C46C6
S31500002E40BCF1030F0DD0DFED727A9FED727ABCF103
S31500002E50010FC0ED157A47FE277AC4ED007A0020EF
S31500002E60F8BDD0F890104D6890F85C10012961D03B
S31500002E7089B3B5F8402093ED007A07EE902AF8EE74
S31500002E80E77A67EE277A17EE900A0CF031FE9FED8F
S31500002E905E1B41EC100B0DF059F851EC100B0CF0C9
S31500002EA07FFE9FED5D7A07EE900AF4EEC77AF1EEAB
S31500002EB010FA05DB77EEC77A0020C4ED007AF8BD7C
S31500002EC0F5EEC07AF1EE10FA48BF77EE877A002069
S31500002ED0C4ED007AF8BDB5F8406090ED157A07EEBE
S31500002EE0906AF8EEE77A27EE877A82ED007AF0EEBE
S31500002EF0C76A80ED027A90ED167A83ED007A90ED3E
S31500002F001E6AB4EEE66AF1EE10FABAD801226E68CD
S31500002F107668F66980F85C2080F85E1096F92410D1
S31500002F203E4E480901F01F018A4000F1200146F893
S31500002F3021202AE0B5F8406090ED1C7A07EE906AF1
S31500002F40F8EEE77A67EE877A6E687668F669C2ED1C
S31500002F50007A826EC0ED027A1A6090ED1E7AD0ED8C
S31500002F601F6AF0EEE77A37EE667AB4EEE77AF1EEAC
S31500002F7010FA0FDC96F92420284E500902F01F02A1
S31500002F80914000F1200246F82210BFF34F8FBFF3A5
S31500002F906F8F6EE796F924C0214A0CF1C00652F8ED
S31500002FA026706FF3104742F8267052F82620BFF3BA
S31500002FB05F8F4FEA5C1292000CF01F0C02F1604228
S31500002FC001FA0CF602F56142C2F88061166090F8CB
S31500002FD05E2080F85D100132D2B280F85E2095F84E
S31500002FE03C1091423FF645AF002280F85C2080F805
S31500002FF05E20B5F8402093ED007A07EE902AF8EEB1
S31500003000E77A3EE7AFF3008000000060FB2119403D
S3150000301000000000DB0FC93FDB0FC94000E100E004
S31500003020006000400620704770B54D680E46698BFB
S315000030309FED2C7A07EE901AB7EE006AF8EE677AE3
S31500003040044600230022C7EE276A4FF0010C86EEE5
S31500003050277AB5F81CE05C30C4E90633C4E90A33C4
S31500003060C4E90C33C4E90E33C4E91033E184A38206
S315000030702362A3842946C4ED126A84ED137AA4F868
S3150000308012E084F810C022656265A265FFF7B8FDFC
S315000030902B683BB1D3E900019A68126890472B6808
S315000030A0C4F888306B688BB1D3E900019A6812685E
S315000030B090476B689A681868136998476B689A68AE
S315000030C01868536898476B68C4F88C300023002052
S315000030D0A3602B7C044A237320712260C4F890609D
S315000030E070BD00BFDB0FC9404553544D38B5D0F80D
S315000030F0885045B10446FFF7D9FDAB6828685B6880
S31500003100984703232374002038BD00BF70B50446DA
S315000031100E464968B7EE006A0A7C9FED197A22735B
S315000031204A8B002507EE902AF8EE677A0023C7EE51
S31500003130276A4FF0010C86EE277AB1F81CE05C3066
S31500003140C4ED126A84ED137AC4E90655C4E90A553A
S31500003150C4E90C55C4E90E55C4E91055E284A4F837
S3150000316012E084F810C023656365A365A582256215
S31500003170A584FFF745FD2846C4F8906070BD00BFE2
S31500003180DB0FC94038B50121044600230022D0F8E0
S31500003190900045682174A4F85C3084F85E30296894
S315000031A0C4E90633C4E90A33C4E90C33C4E90E336F
S315000031B0C4E9103322656265A265A266E2662267EB
S315000031C06267A3822362A384A4F86030636619B1A0
S315000031D08B6808681B6B98476B681BB19A68186800
S315000031E0136B9847002000232060A36038BD00BF02
S315000031F0F8B5002500260122D0F89010274B496823
S31500003200044649684968C969C0E90655C0E90A55CE
S31500003210C0E90C55C0E90E55C0E91055066546656E
S3150000322086658666C6660667466702748582056297
S315000032308584A0F85C5080F85E50A0F86050456622
S3150000324091F9241001F1C00C53F82C7065F3104766
S3150000325043F82C7053F82C30BFF35F8F4B099B005B
S3150000326001F01F0103F160438A4003F56143C3F88F
S3150000327080211A60FFF71AFDD4F88830A660257100
S315000032804BB19A68186893689847D4F888309A685A
S315000032901868D36898470020F8BD00BF006000405A
S315000032A0F0B5036887B01C68237C032B01D007B0F8
S315000032B0F0BDD4E92352AB6801A99B6A2868566819
S315000032C0D4F888709847AB6828685B6A03A9984762
S315000032D094F85D30019A012B7FD0A569059BB4F95E
S315000032E02610551BB3F5803F98BF2DB24842A84221
S315000032F070DAA942CABF636CD31A5B196364A26110
S31500003300227B1AB9994271DC5B1A636407EE903A24
S31500003310DFED456AF8EEE77A94ED137A67EEA67A62
S3150000332067EE877ABB6838689B6A01A9C4ED167A8E
S315000033309847BB6838685B6A03A99847059B01995B
S31500003340B3F5803F236AE16196BFCB1ACA1A9AB2D7
S31500003350E36B2162316A13448B42A8BF0B460027F8
S31500003360A18CC4E90E3704EB8106B26A206C0131E8
S3150000337089B29A1A042902442264B36214BFA18452
S31500003380A784002A93D094ED127AB1EE006ADDED9F
S31500003390046A07EE902AF8EE666A27EE067AF8EED9
S315000033A0E77A27EE267A002DC7EE276A23DBD4EDCF
S315000033B0147AF5EEC07AF1EE10FA2DD425B9F5EEB1
S315000033C0C07AF1EE10FA24D4636DC4ED156A236554
S315000033D007B0F0BD1346626491E70023B4F860506D
S315000033E084F85D30636EA561636477E7002BBCBF2C
S315000033F05B1863648AE7B4F926305A42AA4208DBAE
S31500003400D4ED147AF5EEC07AF1EE10FADCD5AB42C3
S31500003410DADAF1EE666AD7E7B4F92630AB42F8DBC2
S31500003420002DF6D0D0E700BFDB0FC94003469FED65
S31500003430067AD3ED037A67EE877AFDEEE77A17EE22
S31500003440903A00200B807047E02E6542034600202C
S3150000345083ED030A704700BF07EE901ADFED0E6A90
S31500003460F8EEE77A9FED0D7A67EEA67AF4EEC77A64
S31500003470F1EE10FA03DB80ED057A002070479FED30
S31500003480087AF4EEC77AF1EE10FA96BF054BC0ED56
S31500003490057A43610020704735FA8E3C17F90E44D1
S315000034A017390FC417F90EC4034600201971704767
S315000034B00346D3F8DC20D3ED077A5268D3ED034AEE
S315000034C0B2F834C092ED0F5A06EE90CA77EEE47A5F
S315000034D0F8EE666A66EE856AB0EEE75AB4EE665AAC
S315000034E0DFED0C5AF1EE10FAB2F84C2098BFF0EE70
S315000034F0657A93ED027A06EE102A27EE877AB8EE01
S31500003500C66AC3ED047A67EE067A0020C1ED007A3A
S31500003510704700BF00000000034693F8A8209FED07
S31500003520077A0A70D3ED037A67EE877AFDEEE77ABB
S3150000353017EE903A00204B80704700BFE02E6542A0
S31500003540D0F8DC20034690F8A900D1ED006A526855
S31500003550C8BB93ED327AD3ED2C7AB4EEE77AF1EE6E
S3150000356010FA1BD893ED306AD3ED2E7A27EE067A41
S3150000357067EE277A92ED0E6AB2F84C20C3ED087A10
S3150000358007EE102A67EE867AB8EEC77A67EE877A74
S3150000359077EEA67A0020C1ED007A704715DD77EE4A
S315000035A0A77AB4EEE77AF1EE10FA0ED8D3ED307AB8
S315000035B093ED2E6A27EE277A77EEA77A27EE067A1C
S315000035C077EEC77AD6E7012802D0DFED1A7AD1E77F
S315000035D093ED327AD3ED2C7AB4EEE77AF1EE10FA67
S315000035E0C0D993ED366A07DDB4EEC67AF1EE10FA6D
S315000035F002D8D3ED307ABDE7B4EEC67AF1EE10FA12
S31500003600E3DD77EE867AB4EEE77AF1EE10FADCD8EF
S31500003610D3ED2E5A93ED306AD3ED357A27EE067A3E
S3150000362065EEA77A27EE257A77EE867A77EEC77A61
S31500003630A0E700BF000000002DE9F0414E6800251C
S31500003640324604460027C56045618561C56105614E
S315000036500562C0F8DC1000F1240812F8041B40468D
S315000036600BF092FFA4F8A870D6ED0B7A9FED1F6AB7
S31500003670D6ED096AD6ED0A5A96ED100A67EE867AF5
S31500003680B7EE005A9FED1A7A338CD6ED120A85EE04
S31500003690266AC4ED2C6AC4ED2D6A20EE077AC7EEC1
S315000036A0A56A06F14C00A4F8AA30A4F8AC3041464D
S315000036B0C4ED307AC4ED317A84ED2E6A84ED027A57
S315000036C0C4ED2F6AC4F8C850C4F8D450C4F8CC501E
S315000036D0C4F8D050C4F8D850A4F8AE700BF094FFDC
S315000036E0044B38462360BDE8F08100BF5077D63DD5
S315000036F0DB0FC940534F504D38B5044600252430E2
S31500003700E5606561A561E561256125620BF06CFFE9
S315000037100020C4F8C850C4F8D450C4F8CC50C4F83B
S31500003720D050C4F8D850A4F8AE00206038BD00BF11
S3150000373038B50446002524306561A561E56125613B
S3150000374025620BF051FF012300202371C4F8C850F5
S31500003750C4F8D450C4F8CC50C4F8D050C4F8D850EB
S31500003760A4F8AE0038BD00BF10B524300C460BF0EF
S31500003770B9FF002084ED000A10BD00BF70B50446F5
S315000037802DED028BD0F8DC3082B0B0EE408AD4ED5D
S31500003790070A243094ED030A0D465E6801900BF08B
S315000037A0A9FFD4F8DC30F0EEC06A5B689FED107AB2
S315000037B093ED0F6A9B8E019807EE903AF8EE677AC2
S315000037C067EE867AF4EE676AF1EE10FA98BFB0EE0D
S315000037D0470AF0EE480A84ED040A06F14C010BF0A4
S315000037E0CDFF002085ED000A02B0BDEC028B70BD56
S315000037F0000000000379012B04D0022B28D01BB354
S3150000380000207047D0ED067A90ED057A77EEC76A0C
S31500003810F5EEC06AF1EE10FA1ED41DDCD0F8DC20FD
S3150000382090F8A830D0ED337A526813BB90ED347A15
S3150000383077EEC76AF5EEC06AF1EE10FA29D428DCF5
S31500003840C0ED077A002070470023C361002070474F
S315000038504369C36100207047D0F8DC2090F8A83097
S31500003860C0ED337A80ED347A80ED067A5268002B0B
S31500003870DCD0012BE4D190F8A93090ED347AD0ED6C
S31500003880326A002B7AD0012B18BFF0EE675A56D158
S3150000389036E090ED2D5A90ED316A77EE675A66EE76
S315000038A0053AB0EEE54AB7EE003AB4EEE34AC3EEA7
S315000038B0054ADFED806A80ED2C5AF1EE10FA84EEAF
S315000038C0065AB0F8AC3080ED306AC0ED326AC0ED11
S315000038D0355AC0ED2E4A80ED365AA0F8AA3046D9A0
S315000038E015EE903AB0EEC66A002BB8BFB1EE466A46
S315000038F040F2011380ED306ADFED6E6AA0F8A83061
S3150000390090ED2C5AB4EEE65AF1EE10FA75DA90ED17
S31500003910366A40F19780B4EEE66AF1EE10FAC0F22C
S31500003920918090ED306AF6EE004A25EE065A66EE74
S31500003930265A25EE246A75EEC65A75EEA75A37EE54
S31500003940C77A92ED0C6AB5EEC07A76EE266AF1EE8B
S3150000395010FAC0ED326A47D446DCB0F8AE30B0F8A3
S31500003960AA209A4243D90133A0F8AE3068E764EE44
S31500003970A55A0123C0ED305AA0F8A83090ED2C6A64
S31500003980B4EEE66AF1EE10FA37DA76EE065A45D567
S31500003990F4EEE65AF1EE10FA40DB90ED305AF6EE10
S315000039A0003A26EEA63AD0ED2E4A75EE055A26EED8
S315000039B0056AF0EE082A25EE035A64EEA34A65EE80
S315000039C0A65A26EE226A24EE855A90ED354A26EE50
S315000039D0236A75EEC55A24EE234A75EEC65A75EE6D
S315000039E0845A75EEA75AAAE7F0EE657A28E700230F
S315000039F0A0F8AE3080F8A83022E726EEA66AD0ED11
S31500003A00304AD0ED2E5AB6EE005A26EE246A65EEFE
S31500003A10855A65EE865A75EEA75A90E7F4EEE65A91
S31500003A20F1EE10FA0BD580ED337AF0EE477AF0EE30
S31500003A30475A84E7B4EEE66AF1EE10FAF3D4DFED06
S31500003A401D5A7CE7B4EEE66AF1EE10FA35EE066A28
S31500003A50F0D5B4EEE66AF1EE10FAEBDB90ED303A13
S31500003A60D0ED2E3AB6EE002A66EEA64A63EE822A1C
S31500003A7090ED354A25EE036A23EE245A63EE265A64
S31500003A8064EE264A25EE225A24EE044A75EEC55AFD
S31500003A9063EEA43A26EE026A22EEC44A75EEA35AF3
S31500003AA084EE035A75EEC65A75EE855A75EEA75A18
S31500003AB045E700BF00000000F8B54D689FED277A86
S31500003AC0D5ED107A044667EE877A2A46C4ED027A67
S31500003AD000F124070E46384612F8041B0BF054FD7D
S31500003AE005F14C00D5ED120A95ED100A39460BF09A
S31500003AF08BFD0020A4F8A800D5ED0B7ADFED186A3F
S31500003B0095ED097A95ED0A6A67EEA67AF7EE005A00
S31500003B102A8C0023C5EE876A84ED2C7A84ED2D7AF3
S31500003B2087EE867AC4ED2E6AC4ED307AC4ED317A1A
S31500003B3084ED2F7AC4F8C830A4F8AA20A4F8AC20E3
S31500003B40A4F8AE00C4F8D430C4F8CC30C4F8D030F1
S31500003B50C4F8D830C4F8DC60F8BD00BFDB0FC9403C
S31500003B605077D63D4B6870B59A680E690D46044687
S31500003B70C0F8C4101268D3E90001904700282ED17E
S31500003B802B68D3E9011218681268904738BB33696D
S31500003B9023B1D3E90112186812689047736923B1FB
S31500003BA0D3E90112186812689047002300224FF4E7
S31500003BB080710B4DE360256023616361A36123621D
S31500003BC06362A362E36323646364A36484F8982056
S31500003BD0A18584F82F2084F84C206281626070BD34
S31500003BE04345544DD0F8C42038B5136815699A6812
S31500003BF00446186853689847002827D1D4F8C4307B
S31500003C005B689A681868536898472B691BB19A686D
S31500003C101868536898476B691BB19A6818685368A7
S31500003C20984798B900234FF4807284F82F0084F8DF
S31500003C304C002060E36023616361A36123626362D9
S31500003C40A362E36323646364A364A28538BD00BFF3
S31500003C50D0F8C4301B689A6818681369184700BF03
S31500003C6003469B7900200B70704700BF002210B5F9
S31500003C70D0F8C4308EB05B6806929A680C46186815
S31500003C8001A9136A9847069B23600EB010BD00BFBA
S31500003C90002210B5D0F8C4308EB05B6805929A68E1
S31500003CA00C46186801A9136A9847059B23600EB055
S31500003CB010BD00BF06207047D0F8C43010B51B6891
S31500003CC004469A681868D368984750B9D4F8C4303F
S31500003CD05B689A681868D3689847003818BF01204F
S31500003CE010BD012010BD00BFD0F8C43010B51B6850
S31500003CF004469A6818689368984750B9D4F8C4304F
S31500003D005B689A68186893689847003818BF01205E
S31500003D1010BD012010BD00BF0020704710B504463D
S31500003D20D0F8C4301B689A68186893689847D4F826
S31500003D30C4305B689A68186893689847002010BD7D
S31500003D4090F8983033B9D0F8C4301B689A68186870
S31500003D5053691847002070472DE9F0412DED028B7D
S31500003D609FED528AD0F8C43094B05B680E465A680C
S31500003D701F689B6805468DED038A38461B6A07A9AE
S31500003D80D2F8008098470446002846D1D8F8083073
S31500003D906946D8F800001B699847044600283CD1BC
S31500003DA097F85830012B3ED0F0EE485AB0EE487ADC
S31500003DB0D5F8C430DDED036A1A69DDED0B7A92EDB4
S31500003DC0006AB4EEC86AF1EE10FA06D4B0EEC77A0D
S31500003DD0B4EEC67AF1EE10FA2EDD4FF4807392ED52
S31500003DE0017AF4EEC76A92ED037AF1EE10FAF4EE78
S31500003DF0C76AC8BF43F00203F1EE10FAF0EEE77AA5
S31500003E0092ED027A23D4B4EEE77AF1EE10FA25D4D5
S31500003E10AA881343AB8033803BBB204614B0BDEC6D
S31500003E20028BBDE8F0819DED007ADDED025AB0EE21
S31500003E30C78A37EE257ABBE7F0EEE55AF4EEC65AA6
S31500003E40F1EE10FACCBF4FF480730023C7E7B4EE4F
S31500003E50E77AF1EE10FA43F0800322D5AA881343DD
S31500003E6043F004039BB2AB80338000200221AB7980
S31500003E700F4A68811A4492790633EA710D4A284638
S31500003E8052F823302972984718B16B8943F004031E
S31500003E906B812046EB79AB7114B0BDEC028BBDE8AB
S31500003EA0F081AA881343AB803380DEE70000000070
S31500003EB0A01D0100701D010038B502234FF0000E51
S31500003EC00D4A03728379B0F804C01A440B4D9279F7
S31500003ED041EA0C01063355F82330A0F80AE0818048
S31500003EE0C2710446984718B1638943F0040363819D
S31500003EF0E3790020A37138BDA01D0100701D0100EB
S31500003F0038B590F898400546012C04D0022C0DD007
S31500003F1024B1002038BDE1B1052038BD0029FBD011
S31500003F2080F89810FFF7C8FE204638BD0029F3D167
S31500003F30D0F8C4301B695B691BB19A681868D368EE
S31500003F4098470024284685F89840FFF7CDFE20467E
S31500003F5038BDD0F8C4301B691B69002BEDD1F0E7E2
S31500003F6010B50446D0F8C4301B689A681868936880
S31500003F709847D4F8C4305B689A681868936898477D
S31500003F8094F898300BB9002010BD00212046FFF7A9
S31500003F90B7FF002010BD00BF90F898300BB100208D
S31500003FA0704710B5094982794381895C0372084BD1
S31500003FB0C17153F822300446984718B1638943F01B
S31500003FC004036381E3790020A37110BDA01D0100E5
S31500003FD0701D010090F898300BB100207047012148
S31500003FE010B5438182790A4B01721344DB780332A0
S31500003FF0C371084B044653F82230984718B16389B9
S3150000400043F004036381E3790020A37110BD00BF70
S31500004010A01D0100701D010083880BB900207047A8
S315000040204FF0000C032110B5154A8379A0F80AC099
S315000040301A44527A0933C271124A017252F8233075
S315000040400446984718B1638943F00403638100224C
S315000040504FF480710023E079A185A07184F82F20A8
S3150000406084F84C200020E36023616361A36123622E
S315000040706362A362E36323646364A364A28010BDE6
S31500004080A01D0100701D010070B503790268022BA6
S31500004090146882B005D0032B2DD0012B1DD002B0A1
S315000040A070BD94F84C30D4F83CE084F86030D4F815
S315000040B0C430D4F840C05B68656C9E681868A26C12
S315000040C0336904F15001C4F850E0C4F854C0A56542
S315000040D0E26502B0BDE870401847D4F8C420936882
S315000040E0002BDCD003218DF80410D26868460092BC
S315000040F0984702B070BDD4F8C43019690D69002D17
S315000041002DD094F89810012929D15368D4F868C0A5
S315000041101B68A66D5B686946DB689A681868136B4E
S31500004120C4F8A4C0C4F8A8609847BDF8023004F1EA
S31500004130A401A4F8AC309DF8003084F8AE30AB682A
S3150000414028689B699847AB6804F19C015B692868FD
S315000041509847AB6828681B6A9847D4F8C4309A68B1
S31500004160002A9CD004218DF80410DB686846009371
S31500004170904702B070BD00BFF0B503790568013BFA
S315000041802C6885B0032B31D8DFE803F002423A32BF
S31500004190D4F8C43004F164015B689A681868136A3D
S315000041A09847A36EE06E2361D4F88430616E226F67
S315000041B060616362B4F88C0094F88E30E160A261AD
S315000041C0D4F88810D4F8C420A08584F82F309368DA
S315000041D0D4F88050A162E16F2562E16133B101211B
S315000041E08DF80C10D26802A80292984705B0F0BD6F
S315000041F0D4F8C430586805B0BDE8F04001F04CBBB7
S31500004200D4F8C430586805B0BDE8F04001F03CBBB6
S31500004210D4F8C4301B691A691AB194F898100129A8
S3150000422047D027465E69002E3CD097F89830022B7F
S3150000423038D16B68D7F868C01B680DF106015B685A
S31500004240DB689A681868D368C7F8BCC09847BDF998
S31500004250063007F1BC0107EE903AF8EEE77AB3684C
S3150000426030689B69C7ED307A9847B3683068DB6978
S315000042709847B36807F1B0015B693068984740F228
S315000042800113ADF80830D7ED2C7AFDEEE77A6B68AE
S3150000429002A91B689A681868536917EE902AADF848
S315000042A00A209847D4F8C4209368002B9ED0022198
S315000042B096E793681068DB6998474FF48073ADF80A
S315000042C008306B68B4F89C201B68ADF80A209A6821
S315000042D0186802A9536998472F68D7F8C4301B6934
S315000042E0A0E700BF0346002083ED080AC3ED090AD4
S315000042F083ED0A1A704700BF00B5436F1A7C1B6A2C
S31500004300012A3FD0D0ED026A90ED0C5A90ED037A67
S31500004310D0ED0D5AD0ED047A90ED0E6A76EEC56AB0
S3150000432037EE657A77EEC67AC1ED006A81ED017ADD
S31500004330C1ED027AD0ED197AD0ED1A5AD0ED186A8D
S3150000434077EEE57A76EEA66A426990ED167ACA604D
S3150000435093F8263077EEE67A012B9FED106A08BFB8
S31500004360DFED0F6A27EE067A08BF67EEA67A67EEDC
S31500004370277A8269C3690020C1ED047A4A618B619C
S315000043805DF804FBD0F808C0C268D0F810E0C1F8A8
S3150000439000C0C1F808E04A60CCE700BF3FC61C3F3A
S315000043A00AD7933F034600210022084683F82C10C3
S315000043B0D985DA631A645A64704700BF30B4EFF3E4
S315000043C01084012383F31088144B1A682AB94FF01E
S315000043D0400C134DEA7085F803C01A6801321A6062
S315000043E084F31088020A0F4C120152FA80F044F846
S315000043F02010EFF31082012181F31088196811B1A2
S315000044001968013919601B681BB980200449CB70F3
S31500004410C87082F3108830BC704700BFAC0C002017
S31500004420000D084000080840F8B50446436F022115
S315000044305A691D6A5368D3E90127DE68106802F0DD
S315000044403BFA0221386802F037FA0221306802F09E
S3150000445033FAD4E91313104A288D11401340C4E9E6
S315000044601313FFF7ABFF216D688DFFF7A7FFE16C14
S31500004470A88DFFF7A3FF216DE88DFFF79FFFE16C85
S31500004480288EFFF79BFF216D688EFFF797FF0123AC
S3150000449084F85430F8BD00BFFFFFFE0F436FD1ED27
S315000044A0006A1B6A91ED017A93F82630012B59D0E8
S315000044B0D1ED027AD0ED175A90ED1B6A66EEA56A29
S315000044C076EE866AC2ED006AD0ED175A90ED1B6A49
S315000044D027EE257A37EE067A82ED017AD0ED175A65
S315000044E090ED1B6A67EEA57A77EE867AC2ED027AC0
S315000044F090ED196AF4EEC66AF1EE10FAD0ED1A5A8A
S3150000450010DDB4EEC67AF1EE10FA82ED006A15DD22
S31500004510F4EEC67AF1EE10FA82ED016A1ADD82ED4A
S31500004520026A7047F4EEE56AF1EE10FAB4EEC67A66
S3150000453048BFC2ED005AF1EE10FAE9DCB4EEE57AB6
S31500004540F1EE10FAF4EEC67A48BFC2ED015AF1EE6A
S3150000455010FAE4DCF4EEE57AF1EE10FA48BFC2EDAB
S31500004560025A7047F4EEC76AF1EE10FAD1ED027AFC
S31500004570D4BFF0EE475AF0EE665AF4EEE57AD4BFB1
S31500004580B0EE666AB0EE476AF1EE10FA13DCF4EEAE
S31500004590C67AF1EE10FA54BF75EE865A77EEA55A32
S315000045A0B6EE006A25EE866A76EEC66A37EE467A7B
S315000045B077EEC67A7EE737EE866AF6EE005A26EE84
S315000045C0256AF1E72DE9F04F2DED028B0025044613
S315000045D0436F93B0D3F820805F6998F840207B68DA
S315000045E0B0F804B003EB82035E68B0F806A0B368C7
S315000045F009A95B6ACDE90455CDE9075530680395ED
S3150000460006959847B7EE008AD4ED057A88EE277AA4
S31500004610236AC4ED167A0393636A84ED177A0493CA
S31500004620A36A03A9204606AA0593DDF82C90FFF796
S3150000463035FF07EE90BADDED066AF8EEE75A78EE3A
S31500004640666A06EE10AA9DED077ABAEEEF6A38EEB4
S31500004650477ADDED087A66EEA56A78EE677A27EE88
S31500004660257A76EE866A4FF4817367EEA57A37EE81
S31500004670067AFCEEE66A37EE868AA4F84830FCEE47
S31500004680C77A16EE903ABCEEC88A1FFA83FC17EE7C
S31500004690903A99B218EE103A8C459BB27EDA624691
S315000046A0AA468C4684F84950114601259C4573DA82
S315000046B0624628469C4684F848501346022599428D
S315000046C009DA8E460246194684F8490084F848A05D
S315000046D0504673469246D8F83820CC1A944260DA8F
S315000046E002EB030EF145D8BF09F1FF3ECEEB4101C7
S315000046F0ACEB0E04A2424DDD02EB0E0BD945D8BF42
S3150000470009F1FF3BCBEB4C0C0129D8F83C40B8BF74
S315000047100121BCF1010FA2EB0404B8BF4FF0010C5C
S315000047200128AEEB0402ABEB040459D002283DD0BD
S31500004730002852D0002318469846BAF1010F3AD005
S31500004740BAF1020F45D0BAF1000F3DD019468246A4
S31500004750C146012D35D0022D25D161465B46CDE9F6
S315000047600E39BB68CDE90C801B69CDE910A138680C
S315000047700CA901929847019A0021306802F0ACF822
S3150000478022460321306802F0A7F813B0BDEC028B75
S31500004790BDE8F08FE346B7E7022090E74FF0010A45
S315000047A084E78E46A4E7E146D846D8E70020BAF16A
S315000047B0010F8046C4D1012D8A4670461946C1466E
S315000047C0C9D1E2465846CAE78946F04682461946A6
S315000047D0BFE773468246C146BBE798460346ACE749
S315000047E0184600239846A8E72DE9F0410468A04B37
S315000047F0226884B09A4202D004B0BDE8F081037901
S31500004800002BF9D1676F02933E68ADF80430ADF81E
S315000048100630ADF80C30F36832219B6901AA306886
S31500004820FD68D7F820809847F36833219B69306884
S315000048300DF106029847002D45D098F8442098F8C7
S3150000484047309A420DD1F3683068DB6A9847D5E95C
S315000048500001EB681B689847EB68A9685B682868E5
S315000048609847EB6828689B689847EB6869465B69D8
S31500004870286898479DF80030012BF6D0EB6802AA0D
S315000048809B6997F907102868984798F8442098F884
S3150000489047309A4217D1EB682868DB6A9847D6E911
S315000048A00001F3681B689847F368B1685B68306875
S315000048B09847736830685969F3681B6A9847F368C4
S315000048C030689B689847D4ED0C6AFCEEE66A94ED76
S315000048D00E7ABDF8083098ED064A06EE103ABDF895
S315000048E00A30D8ED054A05EE103ABDF80C30D8ED81
S315000048F0047A05EE903A16EE903ABCEEC77ABDF809
S3150000490004109BB2CB1AC4EE842AC7EE844A07EE83
S31500004910903A17EE103ABDF806209BB2D31AF8EE7D
S31500004920E76A07EE903A98ED0D3AB8EE466AF8EE69
S31500004930E77AD8ED083A26EE226A77EEC37A26EEB3
S31500004940A47A67EEE47A66EE236AB8EE455AF8EE84
S31500004950655AC4ED056A77EE276A94F8483084ED07
S31500004960065A012BC4ED075AF1EE666A53D0022BA4
S3150000497067D0002B5AD09FED3F7AF0EE477AF0EEE3
S31500004980476A94F82C30012B37D007EE901AB8EE10
S31500004990677A07EE902AF8EE677A626F936984ED7C
S315000049A0027AC4ED047AA3B101218DF80810D26908
S315000049B002A803929847626F936933B102218DF87A
S315000049C00810D26902A80392984794F82C30012B5C
S315000049D01DD00023204623626362A362FFF7F2FD27
S315000049E0626F9369002B3FF407AF03218DF808101F
S315000049F0D26902A803929847FEE6626FC4ED026A86
S31500004A009369C4ED037A84ED047A002BCCD1204659
S31500004A10FFF7D8FDE4E794F84930022B1CD0B0EE3E
S31500004A20676AF0EE477AB0EE467AAAE794F849301C
S31500004A30B0EE666A012BF0EE476A14D0B0EE467A05
S31500004A409FE794F84930002B9BD0B0EE666AF0EEF3
S31500004A50676AF0EE467A94E7B0EE666AF0EE676A49
S31500004A60F0EE477AEAE7B0EE677AF0EE467A88E744
S31500004A704152444D00000000F7EE007A07EE100A9E
S31500004A8037EEC00AF8EEC76A07EE101A77EEE00AAC
S31500004A90BAEEEF7A20EE260A37EEC11A60EEA60AC3
S31500004AA030EE070A70EE870A21EE261ABCEEC00A1F
S31500004AB0FCEEE00A10EE103A71EE077A99B2FCEEBF
S31500004AC0E77A10EE903A00B5506992F810C09AB2A3
S31500004AD017EE903A87B09BB2BCF1010FCDE90012F8
S31500004AE008BFCDE90312029308BF059320B183687E
S31500004AF0694600681B69984707B05DF804FB00BF6C
S31500004B002DE9F843436F04461E6A0D46308D002892
S31500004B104ED194F82C30CBB9626F117C012919D192
S31500004B20B28CE08D90427CD294ED0F7AD4ED117A5E
S31500004B3094ED026AD4ED046A37EE067A77EEA67A29
S31500004B4084ED0F7AC4ED117A0130E0852B700020D8
S31500004B50BDE8F88394ED1B1AE188F0EE410AB0EE49
S31500004B60410AA088FFF788FFB38CE28D9A426FD284
S31500004B70D4ED0F6A94ED107AD4ED117A94ED025AC1
S31500004B80D4ED035A94ED046A76EE856A37EE257AFB
S31500004B9077EE867A94F82C300132C4ED0F6A84EDF4
S31500004BA0107AC4ED117AE2852B700020BDE8F883F7
S31500004BB094F85420012AACD15B69E16C5A68236DE4
S31500004BC041F4803143F48033D2E90198D768C4E9CF
S31500004BD01313FFF7F3FB216D708DFFF7EFFBE16C0D
S31500004BE0B08DFFF7EBFB216DF08DFFF7E7FBE16C76
S31500004BF0308EFFF7E3FB216D708EFFF7DFFB02219E
S31500004C00D9F8000001F048FE0221D8F8000001F0B2
S31500004C1043FE0221386801F03FFE002384F8543039
S31500004C2077E707EE902A94ED0F7AF8EEE77A94ED9F
S31500004C30116AC7EE276A0B4686EE277AC4ED0C6A20
S31500004C4084ED0E7A84F82C102B700020BDE8F883D2
S31500004C5007EE903AD4ED0F6AF8EEE77A94ED107A03
S31500004C60D4ED115A012286EEA76A1346C7EE276ACB
S31500004C7085EEA77A84ED0C6AC4ED0D6A84ED0E7A92
S31500004C8084F82C202B700020BDE8F883834B026843
S31500004C909A4200F0ED802DE9F04104464FF47A7017
S31500004CA00E6AF6EE006A328896ED026A00FB02F2A0
S31500004CB007EE902AB8EEE77AC7EE067A67EEA67A8E
S31500004CC00023FCEEE77A61670D4601270021B6F85E
S31500004CD00CC0A360E3602361636123626362A36225
S31500004CE023636363A363E3632364636417EE903A09
S31500004CF0A4F806C084F8547084F82C1004F1580CFB
S31500004D0006F14C0EE185A380BEE80F00ACE80F006B
S31500004D109EE80700D6ED167AF5EEC07AF1EE10FAA7
S31500004D208CE8070007DDB7EE007AF4EEC77AF1EEFD
S31500004D3010FA40F29F80D6ED177AF5EEC07AF1EEC2
S31500004D4010FA0BDDD4ED196AB6EE007AC4ED1A7AC4
S31500004D5077EEA67A67EE877AC4ED1B7A6B69002B2D
S31500004D6032D0596896F840204D4801EB82025768C8
S31500004D707A68D2F81CC04B4A9CF80180B8F1000F43
S31500004D800CBF96468646C4F84CE09CF803C0BCF1BE
S31500004D90010F18BF024622659A681868136898477B
S31500004DA02B7C012B3DD1BB6838682246DF6A3E4921
S31500004DB004F19803B847338D002B40D16B699A688C
S31500004DC01868536898472E6A2B7C012B3BD02B68BA
S31500004DD013B3DA6859681268186890472B68D3E9E4
S31500004DE002121868526890472B685968DA68186882
S31500004DF04969126A90472B7C012B08D02A6804F176
S31500004E007803D16810688E6A22462849B0472B6815
S31500004E10DA68186893689847204B00202360BDE83D
S31500004E20F08194ED1B1A626FF0EE410AB0EE410A72
S31500004E30E188A088FFF720FE338D002BBED02046E8
S31500004E40FFF7F2FABAE796F8442096F847309A4206
S31500004E50BDD0EB68002BBAD0DA68596812681868BA
S31500004E609047EB68D3E90212186852689047AEE79C
S31500004E700E20704794ED1A7AC4ED197A77EE877A88
S31500004E8067EEA67AC4ED1B7AD6ED177AF5EEC07AF0
S31500004E90F1EE10FA3FF756AF60E700BF4152444DBE
S31500004EA00500000304000003E9470000B14E0000BE
S31500004EB02DE9F0414FF00008456888B06E6FCDE9E6
S31500004EC006883468CDF81480E36896F904109B6967
S31500004ED0206805AA376A9847337C032B74D0ADF84F
S31500004EE01680E36896F906109B6906AA206898471B
S31500004EF0E36896F907109B690DF11A022068984736
S31500004F00E36896F908109B6907AA20689847E36842
S31500004F100DF11E029B6996F9091020689847BDF8A5
S31500004F201630D7ED063A06EE103ABDF81830D7ED32
S31500004F30055A06EE903ABDF8143097ED074A07EE8B
S31500004F40103ABDF81A3097ED042A07EE903AC5EEEE
S31500004F50A32AB8EE466AF8EE666AB8EE477AF8EE25
S31500004F60677ABDF81C3097ED083A04EE903ABDF822
S31500004F701E30C2EE235A05EE103A36EE446A76EE3D
S31500004F80C46A37EE447A67EEA27AF8EE644AB8EE5F
S31500004F90455A26EE656A66EEE56A27EE657A67EE9D
S31500004FA0837A334B2A68C5ED064A9A4285ED075A3D
S31500004FB085ED036AC5ED046A85ED027AC5ED057ACD
S31500004FC00BD008B0BDE8F081E36896F905109B693F
S31500004FD020680DF11602984783E76A6F936983B1DB
S31500004FE00121D269684601928DF8001098476A6FD0
S31500004FF0936933B1D2696846019202228DF8002086
S31500005000984795F82C30012B0DD06A6F9369002BC9
S31500005010D7D00321D269684601928DF800109847CF
S3150000502008B0BDE8F0810023CDE905330793D5ED3F
S31500005030057AF7EE006A86EEA77A2B6A6C6A029307
S31500005040AB6A284605AA02A9C5ED167A85ED177A38
S3150000505003940493FFF722FA9DED071ADDED060A85
S315000050609DED050A6A6FE988A888FFF705FDCCE77C
S315000050704152444D4FF47A7230B50D6AB6EE006A6D
S315000050802B88D5ED025A02FB03F307EE903AB8EEF1
S31500005090E77AC7EE257A67EE867AD5ED166AFCEED4
S315000050A0E77AF5EEC06A17EE903AF1EE10FAAA89A1
S315000050B000F1580C05F14C0E4167C280838004460E
S315000050C0BEE80F00ACE80F009EE807008CE807007A
S315000050D006DDF7EE007AF4EEE76AF1EE10FA14D97F
S315000050E0D5ED177AF5EEC07AF1EE10FA0BDDD4EDB8
S315000050F0196AB6EE007AC4ED1A7A77EEA67A67EEEA
S31500005100877AC4ED1B7A002030BDD4ED1A7AC4ED3F
S31500005110196A76EEA76AD5ED177AF5EEC07A66EECD
S31500005120866AF1EE10FAC4ED1B6AE0DCEBE700BF1D
S3150000513090ED1B1A38B50446426FC188156A8088FF
S31500005140F0EE410A84ED081A84ED091A84ED0A1A74
S31500005150B0EE410AFFF790FC2B8DBBB9002001226F
S31500005160002384F82C0084F8700084F85420A3608F
S31500005170E3602361636123626362A362E085236364
S315000051806363A363E3632364636438BD2046FFF768
S315000051904BF9E3E770B5456F04462B6A1B8D002B70
S315000051A031D12E4600220121002384F8541084F8C0
S315000051B02C2084F87020A360E3602361636123627E
S315000051C06362A36223636363A363E3632364636429
S315000051D03368E2851BB1DA681868D36A9847337C6E
S315000051E0012B08D06B691BB19A68186893699847B8
S315000051F00020206070BDF368002BF3D0DA681868D1
S31500005200D36A9847EEE7FFF70FF9666FCAE700BF64
S315000052100346012200201A71704700BF00B58E4672
S3150000522000F5807CBEE80F00ACE80F00DEF8003029
S315000052300020CCF800305DF804FB00BF03460020D8
S3150000524083ED040AC3ED050A704700BF034600203C
S3150000525083ED0C0AC3ED0D0A704700BF034600B587
S31500005260D1F800C0D1F804E08968002019621168FD
S315000052705268C3F81CE0C3F818C0D9629A645DF896
S3150000528004FB00BF436ED0ED0C6A1B699FED306ACC
S31500005290DA6B10B512880C4607EE102AB8EEC77AFC
S315000052A0C6EE877A67EE867AD0F824C0816AD0F88F
S315000052B01421C4F800C06160D0F834C0816CC4F811
S315000052C014C0A160D0F84CC0816BC4ED036AC4ED74
S315000052D0047AC4F81CC0A161D0F854C0016DC4F8AA
S315000052E024C0216290F8581084B084F828101B78E6
S315000052F0012B1CD0032B02D0002004B010BD9368F4
S3150000530001A910685B6B98470020029A039B9DF8E1
S315000053100410E26223639DF805209DF8063084F8A8
S31500005320291084F82A2084F82B3004B010BD936825
S3150000533010685B6B01A9984700209DF804209DF832
S31500005340053084F8292084F82A3004B010BD00BF47
S31500005350EBC91841034610B4D3F834C01A4C93ED88
S31500005360065A93ED087A93ED076AC4F814C0D4ED93
S31500005370046AC4F814C0D4ED055ADFED144ADFED13
S31500005380147A66EEA46A65EEA45A36EE476A26EEED
S31500005390A77A67EEE57A66EE266A27EE057A26EEA6
S315000053A0256A67EE857A37EE067A77EEA67A83ED7A
S315000053B0097AC3ED0A7A81ED007A9B6A00205DF8CE
S315000053C0044B1360704700BF00100240F304353FE2
S315000053D0D7B3DD3F1F4B90ED004AD0ED014A83ED78
S315000053E0050ADFED1D6AD3ED045A83ED050A25EEA5
S315000053F0A67A93ED055AF1EE477A65EE266A35EE02
S31500005400476A77EEC57A36EEA55A76EEE55A24EE69
S31500005410077A64EEA66A26EE046A67EE847A25EEBB
S31500005420245A65EEA45ADFED0D3A37EE667A9FED03
S315000054300C3A76EE056A77EEA57A27EE037A66EEE3
S31500005440A36A67EEA37A81ED007AC1ED016AC1ED28
S31500005450027A7047001002403ACD133FF304353FFD
S31500005460F304B53F38B5044602680868374B0D6942
S31500005470C4F8180148689A42C4F8140164D04FF081
S31500005480000C84F804C084F858C095ED0D0A00207D
S31500005490DFED2F7A6166A96B20EE270A04F17C0303
S315000054A004F16802A060E060206160616062A06251
S315000054B0E06220636063E06320646064A066E06786
S315000054C06067C4F88800A167C4F88C10D5E90F019D
S315000054D009F06AFB6968AA68EB682869C4F8901045
S315000054E0C4F89420A9696A69C4F89830EB69C4F8CD
